:101AF10053657420004175746F00496448003130AA
:101B010030004F644800537461204F70656E005778
:101B110061726E696E670049642048756D69646918
:101B2100747920202020000D0A004F642048756D33
:101B31006964697479202020200053746120202079
:101B41002020204F70656E2800292F436C6F73652C
:101B5100005761726E696E672020202020202020AE
:101B6100000D0A0D0A0D0A005365744D6F6441544E
:101B710000005365744D6F644D000000536574009F
:101B81000000000000004F70656E000000000000C2
:101B91000000000000000000000000000000000044
:071BA100000000000000003D
:101E4600420052000F420060005A42004D0000421C
:101E5600005000004100620041004C0041004F006C
:101E66004A00560000000000000000000004610067
:051E7600000000C18026
:08240000900060E0FEA3E0FF84
:10240800AB07AA06D3EB9400EA64809480400122CB
:0C2418007CFF7DFFAF03AE021204FF2228
:10185C00300102D200200003021957309209309354
:10186C0006309403021957C200209270900062E077
:10187C00FF75F003120463AFF0EF14601014603BBB
:10188C0024026003021962E490004CF022C3900021
:10189C0061E0945A900060E06480948040030219E7
:1018AC006290004CE064016003021962900061E0F8
:1018BC0004F07027900060E004F022C3900053E025
:1018CC009464900052E0648094804003021962A3F7
:1018DC00E004F07006900052E004F0222093079090
:1018EC000062E004F02220946D900062E0FF75F03D
:1018FC0003120463AFF0EF14600E14603024027016
:10190C005590004C7401F022D3900061E094A690A5
:10191C000060E06480947F403D90004CE064017076
:10192C0035900061E024FFF09000608019D39000A6
:10193C0053E09400900052E0648094804018A3E03F
:10194C0024FFF0900052E034FFF0223092083093E4
:06195C0005309402D200E8
:011962002262
:1012010090004CE07BFF60067A1A79F180047A1A2B
:1012110079F67D06E4FF12170F7BFF7A1A79FBE45A
:10122100FD7F0112170FC390004EE094E890004D2E
:10123100E064809483504FE4F5467B207D027F017A
:101241001221C190004DE0FEA3E0FF7C007D6412FD
:1012510005118F467B287D027F0112216590004D8B
:10126100E0FEA3E0FF7C007D641205117E007F0A91
:10127100CFCDCFCECCCE1205118F467B307D027FF4
:1012810001122165800D7BFF7A1A79FF7D047F01B0
:1012910012170F7BFF7A1B79037D097F0112170F4C
:1012A100C3900051E094E8900050E0648094835032
:1012B1004FE4F5467B287D027F021221C190005048
:1012C100E0FEA3E0FF7C007D641205118F467B30B8
:1012D1007D027F02122165900050E0FEA3E0FF7CB9
:1012E100007D641205117E007F0ACFCDCFCECCCE1A
:1012F1001205118F467B387D027F02122165800D18
:101301007BFF7A1A79FF7D0D7F0112170F7BFF7A20
:101311001B7907E4FD7F0212170FC3900060E064A0
:10132100809480400575460180037546027B187DD7
:10133100047F021221C11224007C007D0A120511D2
:101341008F467B207D047F021221651224007C00E0
:101351007D0A1205118D467B287D047F02122165CD
:101361007BFF7A1B7910E4FD7F0312170F90005267
:10137100E0FEA3E0FF7C007D0A1205118F467B2071
:101381007D067F02122165900052E0FEA3E0FF7C02
:10139100007D0A1205118D467B287D067F021221F0
:1013A10065900062E0FF75F003120463AFF0EF1483
:1013B100601C1460392402705875460A7B38E4FDBC
:1013C1007F021221C1E4F5467B387D048012754607
:1013D1000A7B387D047F021221C1E4F5467B38FD8A
:1013E1007F021221C1E4F5467B387D06801E7546D9
:1013F1000A7B387D067F021221C1E4F5467B38FD68
:101401007F021221C1E4F5467B387D047F0212215F
:02141100C122F6
:101BA80090004DE0FEA3E0FF7C007D0A120511AA1B
:101BB80006AB07900050E0FEA3E0FF7C007D0A1210
:101BC8000511C3EF9BFFEE9AFEC3900053E09FEE12
:101BD8006480F8900052E0648098503790004CE0A0
:101BE8007031900051E09432900050E0648094800D
:101BF800401BD390004EE0943290004DE0648094F6
:101C080080400A90006074FFF0A374A6F0D295C2D9
:101C1800968004D296C29590004DE0FEA3E0FF7C2A
:101C2800007D0A120511D3EF9446EE64809480403B
:101C380014EF24CEFDEE34FFFC1202B38F648E63E2
:0F1C48008D628C6122E4F564F563F562F561222B
:101594007BFF7A1B79187F017E0012226F90004D29
:1015A400E0FEA3E0FFC394E8EE6480948350337CB0
:1015B400007D64120511EF2430FF1225F190004DD7
:1015C400E0FEA3E0FF7C007D641205117E007F0A2B
:1015D400CFCDCFCECCCE120511EF2430FF1225F1A2
:1015E400800D7BFF7A1A79FF7F017E0012226F7BC8
:1015F400FF7A1B79287F017E0012226F7BFF7A1B02
:10160400792B7F017E0012226F900050E0FEA3E050
:10161400FFC394E8EE6480948350337C007D6412AD
:101624000511EF2430FF1225F1900050E0FEA3E0F5
:10163400FF7C007D641205117E007F0ACFCDCFCEE2
:10164400CCCE120511EF2430FF1225F1800D7BFF63
:101654007A1A79FF7F017E0012226F7BFF7A1B7951
:10166400287F017E0012226F7BFF7A1B793B7F016A
:101674007E0012226FC3900060E064809480400476
:101684007F2B80027F2D1225F11224007C007D0A1D
:10169400120511EF2430FF1225F11224007C007D85
:1016A4000A120511ED2430FF1225F17BFF7A1B7914
:1016B4004A7F017E0012226F7BFF7A1B79287F010B
:1016C4007E0012226F7BFF7A1B79527F017E00120B
:1016D400226F900052E0FEA3E0FF7C007D0A120519
:1016E40011EF2430FF1225F1900052E0FEA3E0FF39
:1016F4007C007D0A120511ED2430FF1225F17BFFD9
:0B1704007A1B79627F017E0002226FD9
:0B14130090004FE0640160030215939D
:10141E00783C7C00FD7BFF7A1B7991FE7F081204DD
:10142E003D78447C007D007BFF7A1B79997E007F9E
:10143E000512043DE4F549F54AF54BF54C74562575
:10144E004AF58274003549F583E0FF6043C3944149
:10145E004006EFD3945A400CEFC394614014EFD37F
:10146E00947A500E054CE54C7002054B14243CF852
:10147E00A607054AE54A700205492456F58274000E
:10148E003549F583E070B6743C254CF8E4F680AD32
:10149E00E4F549F54AF54BF54C7456254AF5827438
:1014AE00003549F583E0FF603BC394304006EFD32F
:1014BE0094394004EFB42D0E054CE54C7002054BEB
:1014CE00142444F8A607054AE54A70020549245635
:1014DE00F58274003549F583E070BE7444254CF8EE
:1014EE00E4F680B5E4F549F54AF54BF54CFB7A0088
:1014FE007944121C578E498F4AE4F54BF54CAE4B8E
:10150E00AF4C7C007D0A1204FF74692FF9741B3EE8
:10151E00FA7BFF783C7C007D001207AFEF600E0572
:10152E004CE54C7002054B6404454B70D1C3E54C41
:10153E009404E54B648094805029E54B7025E54C6E
:10154E0014600E14601324027019E490004CF080A5
:10155E001290004C7401F0800A900052E549F0A3FD
:10156E00E54AF0E4900060F090004FF0E54C640323
:10157E00454B701190004CE0B4010A900060E549B3
:05158E00F0A3E54AF0A6
:011593002235
:101D050078327C007D007BFF7A1B799E7E007F0AFE
:101D150012043D1224241224A212258012253D7E90
:101D2500007F00E4F545F5447543C07542407549AB
:101D350033754833754713754640F54DF54C754B6E
:101D450020754A407BE87A037DE87C03121FE79003
:101D55000060A3E0245AFF122445D20112185C75D5
:101D6500400175410075424D7B017A007954AF6B96
:101D75001219637540017541007542507B017A0067
:101D85007954AF6C121963121201121BA8C3E5191D
:101D95009464E518648094804008E4F518F51912F8
:071DA500159412141380A82D
:03000300021A2EB0
:101A2E00C0E0C0F0C083C082C0D075D000C000C07E
:101A3E0001C002C003C004C005C006C007055AE5B8
:101A4E005A70020559C39464E55964809480404BE2
:101A5E00755900755A00AC5BAD5CEC1202B3E4FB39
:101A6E00FA7920784012011E8F568E558D548C5364
:101A7E00755B00755C007E007F00855626855525BA
:101A8E008D248C2385642A856329856228856127A8
:101A9E00120D738F608E5F8D5E8C5DAF60AE5FAD2D
:101AAE005EAC5D1202ECC3E5589FE5579E5004D222
:101ABE00B48002C2B4D3E55894E8E55764809483A9
:101ACE004006755700755800D007D006D005D004D3
:101ADE00D003D002D001D000D0D0D082D083D0F0AD
:031AEE00D0E03213
:10089300060909E6F80C040202020202041E000023
:1008A300000000071F30204040404040201000005F
:1008B30000E010080810E000000F102020100F00C7
:1008C30000001010F8000000000020203F2020004E
:1008D300007008080808F0000030282422213000A6
:1008E30000300808088870000018202121221C000D
:1008F3000000804030F8000000060524243F242433
:1009030000F88888880808000019202020110E00AC
:1009130000E0108888900000000F112020201F00A5
:1009230000180808886818000000003E0100000055
:100933000070880808887000001C222121221C00F6
:1009430000F008080810E0000001122222110F0035
:10095300000000000000000000010101010101008E
:100963000000000000000000000000000000000084
:1009730000000000E0000000000101010F0101017F
:10098300000000000000000000010101010101005E
:10099300404080F0804040000202010F010202004B
:1009A30000000000C03804000060180700000000C9
:1009B30000000000000000000000363600000000C8
:1009C300000038340282C27C000000000037370088
:1009D3000002010202040200000000000000000007
:1009E300F008F0806018000000310C031E211E0087
:1009F3000040C07840C0780000043F04043F040076
:100A030000008040201008000001020408102000AC
:100A1300000810204080000000201008040201009C
:100A23000000000000000000003030000000000063
:100A33000000C038E0000000203C230202273820D9
:100A430008F8888888700000203F202020110E00BD
:100A5300C0300808080838000718202020100800B4
:100A630008F808080810E000203F202020100F009D
:100A730008F88888E8081000203F20202320180069
:100A830008F88888E8081000203F200003000000D1
:100A9300C03008080838000007182020221E020072
:100AA30008F808000008F808203F210101213F2031
:100AB300000808F8080800000020203F202000005C
:100AC30000000808F8080800C08080807F0000004C
:100AD30008F888C028180800203F20012638200085
:100AE30008F8080000000000203F202020203000EC
:100AF30008F8F800F8F80800203F013E013F200005
:100B030008F830C00008F808203F200007183F000D
:100B1300E01008080810E0000F10202020100F003C
:100B230008F808080808F000203F2101010100002F
:100B3300E01008080810E0000F10282830504F007C
:100B430008F8888888887000203F2000030C302034
:100B530000708808080838000038202121221C0072
:100B6300180808F8080818000000203F20000000BB
:100B730008F808000008F808001F202020201F00A4
:100B83000878880000C83808000007380E01000004
:100B930008F800F800F8080000033E013E030000D7
:100BA300081868808068180820302C03032C302034
:100BB3000838C800C83808000000203F20000000A3
:100BC30010080808C83808002038262120201800FB
:100BD300000080808000000000192424123F2000C0
:100BE30010F0008080000000003F112020110E0053
:100BF3000000008080800000000E112020201100E2
:100C0300000080808090F000001F202020103F20F3
:100C13000000808080800000001F2424242417000B
:100C2300008080E0909020000020203F20200000E2
:100C33000000808080808000006B94949493600017
:100C430010F0008080800000203F210000203F2022
:100C530000809898000000000020203F2020000022
:100C6300000000809898000000C08080807F000012
:100C730010F0000080808000203F240629302000EF
:100C8300001010F8000000000020203F202000008A
:100C93008080808080808000203F20003F20003FB4
:100CA3008080008080800000203F210000203F20C2
:100CB3000000808080800000001F202020201F0073
:100CC300808000808000000080FF912020110E00B2
:100CD3000000008080008000000E11202091FF8022
:100CE300808080008080800020203F212000010040
:100CF3000000808080808000003324242424190095
:100D0300008080E0808000000000001F2020100091
:100D13008080000000808000001F202020103F20E2
:100D2300808080008080800000030C300C03000072
:100D33008080008080008080010E300C073806011F
:100D430000808080008080000020310E2E31200042
:100D530080808000008080800081867818060100F2
:100D630000808080808080000021302C2221300090
:1024D900C2A2D2A1E4F580D2A0AF80C2A0530780E6
:0924E900EF7003D38001C350EB36
:0124F20022C7
:1025B900AE071224D9C2A2C2A18E80D2A0C2A02283
:0625F9004307B80225B9FA
:0625FF004307C00225B9EC
:0F250D00AC031224F353043FAF051225F9AF04BA
:09251C0053073F4307400225B9B3
:0626050043073E0225B967
:05256B00F583E493FF7D
:10257000AE071224D9D2A2C2A18E80D2A0C2A022BC
:1024F300EF1460111460092402700EC2A3C2A42257
:0A250300D2A3C2A422C2A3D2A422D4
:102465001224F3E4FDAF051225F9E4FF12251CE45F
:0E247500FCE4FF1225700CBC40F70DBD08E71B
:012483002236
:102424001224D9E4FF1224F3122605E4FF1224F344
:102434000F122605E4FF1224F3122465E4FF02259B
:01244400FF98
:1020AD0012250DE4FBFA75F020E568A42BF582E509
:1020BD00F03AF583E5822493F582E5833408122501
:1020CD006B0BBB00010AEB64104A70DAED04FF12D2
:1020DD002517E4FAFB75F020E568A42BF582E5F0F1
:1020ED003AF583E58224A3F582E583340812256B46
:0B20FD000BBB00010AEB64104A70DA14
:0121080022B4
:1021090012250DE4FBFA75F010E546A42BF582E5DE
:10211900F03AF583E5822433F582E583340A122502
:102129006B0BBB00010AEB64084A70DAED04FF127D
:102139002517E4FAFB75F010E546A42BF582E5F0C6
:102149003AF583E582243BF582E583340A12256B4F
:0B2159000BBB00010AEB64084A70DABF
:012164002258
:1021650012250DE4FBFA75F010E546A42BF582E582
:10217500F03AF583E58224B3F582E5833408122528
:102185006B0BBB00010AEB64084A70DAED04FF1221
:102195002517E4FAFB75F010E546A42BF582E5F06A
:1021A5003AF583E58224BBF582E583340812256B75
:0B21B5000BBB00010AEB64084A70DA63
:0121C00022FC
:1021C10012250DE4FBFA75F010E546A42BF582E526
:1021D100F03AF583E5822463F582E583340912251B
:1021E1006B0BBB00010AEB64084A70DAED04FF12C5
:1021F1002517E4FAFB75F010E546A42BF582E5F00E
:102201003AF583E582246BF582E583340912256B67
:0B2211000BBB00010AEB64084A70DA06
:01221C00229F
:0A170F008F3C8D3D8B3E8A3F8940E0
:10171900E4F541754201AB3EAA3FA940AF41EF3321
:1017290095E08F82F58312049EFF700302185BE532
:101739003DFD7C00E541FB3395E0FAEB2DFDEC3AEC
:10174900FCD3ED9407EC648094804003754202EF6A
:10175900C394414030AB3EAA3FA940AF41EF339516
:10176900E08F82F58312049EFFD3945A5017E53C0B
:1017790025E0FDE541253D75F008A4543FFBEF2424
:10178900BFF5468046AB3EAA3FA940AF41EF33952E
:10179900E08F82F58312049EFFC394614034EFD336
:1017A900947A502EE53C25E0FDE541253D75F0088C
:1017B900A4543FFBC003AB3EAF41EF3395E08F82AA
:1017C900F58312049E24B9F546D003AF42122109CC
:1017D900807BAB3EAA3FA940AF41EF3395E08F82B2
:1017E900F58312049EFFC394304034EFD3943950EB
:1017F9002EE53C25E0FDE541253D75F008A4543F63
:10180900FBC003AB3EAF41EF3395E08F82F5831206
:10181900049E24D0F546D003AF42122165802EAB39
:101829003EAA3FA940AF41EF3395E08F82F583127D
:10183900049EB42018E53C25E0FDE541253D75F001
:1018490008A4543FFBE4F546AF421221C105410209
:02185900171F57
:01185B00226A
:03000600DFFE22F8
:10248400D3EF9400EE940040147D7B7C00ED1D702E
:0D249400011CED4C70F7EF1F70E61E80E399
:0124A1002218
:101E7B00021C0032021E0032021AFFEC0218000094
:041E8B00021600003B
:10258000758921E51AF58C851B8AD2AFD2A9D28C28
:03259000D2B5229F
:10244500EFD394005002E4FFEFC394B440027FB48D
:10245500EF75F00AA4AEF02411F51DE43EF51C223B
:03000B0002230BC2
:04230B00C0E0C0D09E
:10230F00E5174516600E851C1E851D1F7516007579
:10231F001700801BC37420951DF51F744E951CF577
:10232F001E7516007517010519E51970020518C3FA
:10233F00E4951FF51BE4951EF51AF58C851B8AB2E3
:01234F00B5D8
:05235000D0D0D0E03206
:031E8F00016D00E2
:1024A20075C83075CDFF75CCDC75CBFF75CADC7590
:0C24B2009850E4F587D2CAD2ACD2AF2219
:0825F1008F993099FDC2992277
:0A226F008E3C8F3D8B3E8A3F894074
:102279008B418A428943E4FDFCC3ED953DE53C640D
:1022890080F8EC648098502E853E41853F42854018
:1022990043AB41AA42A94312048560130543E543B0
:1022A9007002054214F9120485FF1225F180E20D2E
:0622B900BD00010C80C312
:0122BF0022FC
:0300230002235560
:0D235500C0E0C083C082C0D075D000C007BA
:1023620030982EAF99EF640D60117456256DF58289
:10237200E43400F583EFF0056D80147456256DF595
:1023820082E43400F583E4F0F56D90004F04F0C26E
:0123920098B2
:0B239300D007D0D0D082D083D0E03241
:0C25E500C08000003D25E354B63BE7A297
:061E9200016B05016C0666
:10239E00ED6019AEA0EF75F008120463AFF0A80758
:1023AE007401088002C333D8FC4E8018AEA0EF75BE
:1023BE00F008120463AFF0A8077401088002C3335B
:0A23CE00D8FCF45EFFF5A08FA022FA
:1024BE007E007401A807088005C333CE33CED8F949
:0B24CE00FFADA0EF5D7002C322D3221F
:04221D008F4F8D5002
:10222100E4F552755180E551D394004020E55155B4
:102231005060047D018002E4FDAF4F12239ED2A7BE
:10224100000000C2A7E551C313F55180D97D01AF4C
:102251004F12239ED2A7AF4F1224BEE433F5520092
:0D2261000000C2A77D01AF4F12239EAF52B7
:01226E00224D
:0422C0008F4F8D505F
:1022C400E4F5517D0112239E7C80ECD394004014EC
:1022D400D2A7AF4F1224BE5003EC4251C2A7ECC3A5
:1022E40013FC80E6E55070047D0180027D00AF4F51
:1022F40012239ED2A7000000C2A70000007D01AFF8
:062304004F12239EAF51B1
:01230A0022B0
:1023D8008F4F7D0112239EC2A700D2A700E4FDAF54
:1023E8004F12239E00C2A7000000D2A7007D01AFB4
:0823F8004F12239E00C2A72230
:022525008F45E0
:102527007D0112239EC2A7E4FFD2A7C2A70FBF094E
:06253700F8AF450223D8B5
:022555008F698C
:10255700E4F56A1225257D1EAF6912221DEF256A53
:03256700F56AFF13
:01256A00224E
:081DAC008F458B468A478948E8
:101DB400E4F54DF54E1223D8E54C14600704701A6F
:101DC4007D0380027D05AF4512221DEF3395E0FEB1
:101DD400EF254EF54EEE354DF54D900000AF82AE39
:101DE40083E4FCFD7BFF7AFFF9F8D3120574400A03
:101DF400AF451224BE5003A380E3AF451224BE5066
:101E040008054EE54E7002054D7D01AF451222C016
:101E1400AB46AA47A948EF1204CB7D01AF45122275
:101E2400C0AB46AA47A948900001EF1204DDE4FDC7
:101E3400AF451222C0AB49AA4AA94BEF1204CBAF5B
:011E44004E4F
:011E4500227A
:060FD8008B458A468947A3
:100FDE0012058A9000381205F4AB48AA49A94A12A4
:100FEE00058A90003C1205F47F0A7ED77D237C3C57
:100FFE0090003CE0F8A3E0F9A3E0FAA3E0FB1201B5
:10100E001EE4FBFA792078C212002D9000481205DA
:10101E00F4900038E0FCA3E0FDA3E0FEA3E0FF9017
:10102E0025ED1205C412011E900038E0F8A3E0F978
:10103E00A3E0FAA3E0FB12011EC004C005C006C067
:10104E0007900038E0FCA3E0FDA3E0FEA3E0FF90D4
:10105E0025E91205C412011ED003D002D001D00022
:10106E0012002D9025E51205C412002D900040129D
:10107E0005F4E4FFFE7D407CC0900040E0F8A3E064
:10108E00F9A3E0FAA3E0FB12002D9000441205F440
:10109E007F337E337D877C41900044E0F8A3E0F9F6
:1010AE00A3E0FAA3E0FB120224501E900044E0FCE1
:1010BE00A3E0FDA3E0FEA3E0FFE4FBFA7980783F16
:1010CE001200299000441205F47FCD7ECC7D8F7CDA
:1010DE0042900044E0F8A3E0F9A3E0FAA3E0FB128B
:1010EE0002246020401E900044E0FCA3E0FDA3E03B
:1010FE00FEA3E0FFE4FBFA7980783F12002D90000A
:10110E00441205F47FCD7ECC7DAD7C42900044E050
:10111E00F8A3E0F9A3E0FAA3E0FB1202246020405A
:10112E001E900044E0FCA3E0FDA3E0FEA3E0FFE47C
:10113E00FBFA7980783F12002D9000441205F47F5F
:10114E00CD7ECC7DBF7C42900044E0F8A3E0F9A3B5
:10115E00E0FAA3E0FB1202246020401E900044E05F
:10116E00FCA3E0FDA3E0FEA3E0FFE4FBFA798078A8
:10117E003F12002D9000441205F4E4FFFE7DC87C62
:10118E0042900044E0F8A3E0F9A3E0FAA3E0FB12DA
:10119E000224600C400A90004412060042C800006F
:1011AE007FCD7ECC7DCC7C3D900044E0F8A3E0F971
:1011BE00A3E0FAA3E0FB120224500A9000441206A8
:1011CE00003DCCCCCD900048E0FCA3E0FDA3E0FEBA
:1011DE00A3E0FFAB48AA49A94A1205AA900044E031
:1011EE00FCA3E0FDA3E0FEA3E0FFAB45AA46A947A2
:0311FE000205AA3D
:081963008F3C8B3D8A3E893F59
:10196B00E4F543F549754A00754B44F54C7B017A18
:10197B00007934121DACEF2543F543754900754AC8
:10198B0000754B44754C017B017A007930AF3C12EA
:10199B001DACEF2543F5436005AF3C0225259000B8
:1019AB0030E0FCA3E0FDE41202B39000301205F42A
:1019BB00900034E0FCA3E0FDE41202B3900034127B
:1019CB0005F4754801754900754A347B017A007935
:1019DB0030120FD8E4FFFE7D207C41900034E0F8FC
:1019EB00A3E0F9A3E0FAA3E0FB12011E1202ECAB99
:1019FB003DAA3EA93FEE8FF0120547E4FFFE7D2086
:101A0B007C41900030E0F8A3E0F9A3E0FAA3E0FBFF
:101A1B0012011E1202ECAB40AA41A942EE8FF0124A
:021A2B0005476D
:011A2D002296
:101E980060300000000000000000000000000000AA
:101EA800000000000000000000000000000000002A
:101EB800000000000000000000000000000000001A
:041EC8000000000016
:102050008F318E308D2F8C2E8B2B8A2C892D120553
:102060008AAB31AA30A92FA82E1202245011AF3109
:10207000AE30AD2FAC2EAB2BAA2CA92D1205AAAFDA
:1020800031AE30AD2FAC2E12029DAB2BAA2CA92D58
:102090001205D41202245014AF31AE30AD2FAC2E45
:0D20A00012029DAB2BAA2CA92D1205AA221D
:101FE7008E3C8F3D8F828E83E582242EF582E435E9
:101FF70083F583EAF0A3EBF08F828E83E582242CAE
:10200700F582E43583F583ECF0A3EDF0AF45AE44FC
:10201700AD43AC42853D82853C831205F4AF49AEA2
:1020270048AD47AC46E53D2404F582E4353CF583ED
:102037001205F4AF4DAE4CAD4BAC4AE53D2408F567
:0920470082E4353CF5830205F446
:100D73008E218F22AF26AE25AD24AC23E52224108D
:100D8300F582E43521F5831205F4AF2AAE29AD28A7
:100D9300AC27E522240CF582E43521F5831205F412
:100DA300AB26AA25A924A823AF2AAE29AD28AC27B0
:100DB300120029E5222418F582E43521F583120572
:100DC300F4E5222418F582E43521F583E0FCA3E061
:100DD300FDA3E0FEA3E0FF852282852183E0F8A343
:100DE300E0F9A3E0FAA3E0FB12011EE522241CF5BF
:100DF30082E43521F5831205F4E5222420F582E40B
:100E03003521F583C083C082E0F8A3E0F9A3E0FABB
:100E1300A3E0FBC000C001C002C003E5222418F513
:100E230082E43521F583E0FCA3E0FDA3E0FEA3E02B
:100E3300FFE5222404F582E43521F583E0F8A3E0FD
:100E4300F9A3E0FAA3E0FB12011ED003D002D00104
:100E5300D00012002DD082D0831205F4E522241491
:100E6300F582E43521F583E0F8A3E0F9A3E0FAA3E2
:100E7300E0FBE5222418F582E43521F583E0FCA3A9
:100E8300E0FDA3E0FEA3E0FF120029E5222408F51C
:100E930082E43521F583E0F8A3E0F9A3E0FAA3E0C7
:100EA300FB12011EE5222424F582E43521F5831289
:100EB30005F4E5222420FFE43521FAA9077B01C0CC
:100EC30003C002C001E522242EF582E43521F58317
:100ED300E0FCA3E0FDE41202B3D001D002D0031280
:100EE3002050E5222420F582E43521F583E0FCA39C
:100EF300E0FDA3E0FEA3E0FFE522241CF582E43538
:100F030021F583E0F8A3E0F9A3E0FAA3E0FB1200E4
:100F13002DE5222424F582E43521F583E0F8A3E0CE
:100F2300F9A3E0FAA3E0FB12002DE5222428F582C1
:100F3300E43521F5831205F4E5222428FFE4352165
:100F4300FAA9077B01C003C002C001E522242CF5E6
:100F530082E43521F583E0FCA3E0FDE41202B3D083
:100F630001D002D003122050E5222418F582E43583
:100F730021F583E0FCA3E0FDA3E0FEA3E0FFE5226F
:100F83002414F582E43521F5831205F4E52224289F
:100F9300F582E43521F583E0FCA3E0FDA3E0FEA3A5
:100FA300E0FFE4FBFAF9F81202244012E5222428B8
:100FB300F582E43521F58312060000000000E522E6
:100FC3002428F582E43521F583E0FCA3E0FDA3E0CA
:050FD300FEA3E0FF2277
:101F6B00AB07AA06AF0DAE0CAD0BAC0A8B828A8306
:101F7B001205F4AF11AE10AD0FAC0EEB2404F582CD
:101F8B00E43AF5831205F4AF15AE14AD13AC12EBB6
:101F9B002408F582E43AF5831205F4EB241CF58250
:101FAB00E43AF58312060000000000EB2420F582D2
:101FBB00E43AF58312060000000000EB2424F582BE
:101FCB00E43AF58312060000000000EB2428F582AA
:0C1FDB00E43AF58312060000000000222A
:101ECC0002570000025B000002590000045D42480A
:021EDC00000004
:10253D00758921758DFF758B9BD2AFD2ABD28ED2A3
:08254D00AAD28AD2A8D288228A
:03001B0002259328
:10259300C0E0758DC0758BC00558E55870020557AE
:0325A300D0E03253
:030013000225D8EB
:0D25D800C0E0055CE55C7002055BD0E03200
:10002600020358E86480F8E933E83360110460F0AD
:10003600ED33EC337009E8FCE9FDEAFEEBFF220440
:1000460060DED3EB9FEA9EE99DE8C2E78CF0C2F73B
:1000560095F0400CE8CCF8E9CDF9EACEFAEBCFFB07
:1000660012032385D0F05804700320D5B3E804703A
:10007600075002B2D502036292D5EC0460F7E4CCD5
:10008600C0E0C398F8603B94186008400DD0E0FBD0
:1000960002033AE4FBFAC9FC8028E830E406E4C926
:1000A600FBE4CAFCE830E305E4C9CACBFCE8540724
:1000B6006010F8C3E913F9EA13FAEB13FBEC13FC2F
:1000C600D8F130F52FC3E49CFCEF9BFFEE9AFEEDD2
:1000D60099FDD0E0FBEF4E4D4C701222DB0302037C
:1000E6005FEC2CFCEF33FFEE33FEED33FDED30E736
:1000F600EB02033AEF2BFFEE3AFEED39FDD0E0FBC3
:1001060050130BBB0003020362ED13FDEE13FEEF6B
:0801160013FFEC13FC02033A95
:10011E00EC4D6011E8497017ED33EC3304600DE4DB
:10012E00FCFFFEFD22E933E8330470F80203581297
:10013E00032358046009E4CC248150062850090298
:10014E00036228400302035FC0E0EB4A7044B980AB
:10015E0006D0E0FB02034EEF4E701CBD8008EBFF95
:10016E00EAFEE9FD80EBE98DF0A4FEE5F002020760
:10017E00E9CDF9EAFEEBFFEF89F0A4FCE5F0CE89BC
:10018E00F0A42EFFE435F0CD89F0A42DFEE435F079
:10019E008067EF4E7005BD80D780C3EF8BF0A4ACA7
:1001AE00F0EE8BF0A42CFCE435F0F8EF8AF0A42CE2
:1001BE00E5F038FCE433CB8DF0A42CFCE5F03BF8F5
:1001CE00EE8AF0A42CFCE5F038F8E433CF89F0A4E5
:1001DE002CFCE5F038CF3400CE89F0A42FFFE5F0EB
:1001EE003EFEE433C98DF0A42EFEE5F039CD8AF043
:1001FE00A42FFFE5F03EFEE43DFD33D0E0FB5007BB
:10020E000BBB000F020362EC2CFCEF33FFEE33FE50
:06021E00ED33FD02033A7E
:1002240074F8CC6480CCC86480C8F58204604FC381
:10023400EB9FF5F0EA9E42F0E99D42F0E89C45F020
:10024400603C501DE5825FFFE582D313CB5BCBF4AA
:100254002B5582FB50280ABA002409B900200880D3
:100264001DE5825BFBE582D313CF5FCFF4C3132F6D
:100274005582FF50090EBE00050DBD00010CC3EBF5
:100284009FF5F0EA9E42F0E99D42F0E89C45F0605B
:0902940007CC4820E701B3EC227D
:10029D00ED33EC33600A047003BD8004ECB2E7FC6F
:0102AD00222E
:1002AE0075F020800E75F010800575F0087D007ECB
:1002BE00007F003392D530D503120566EC33401023
:1002CE00EF33FFEE33FEED33FDEC33FCD5F0ED22D4
:0E02DE00E5F0247EA2D513CC92E7CDCEFF2210
:1002EC00EDD2E7CD33EC3392D524814006E4FFFE0A
:1002FC00FDFC22FCE4CFCECDCC24E0501174FF8069
:10030C00EDC3CC13CCCD13CDCE13CECF13CF047005
:07031C00F030D5DE0205669A
:10032300E9D2E7C933E833F892D5EDD2E7CD33EC20
:0703330033FC5002B2D52299
:10033A00EC30E7100FBF000C0EBE00080DBD000424
:10034A000BEB6014A2D5EB13FCED92E7FD2274FFD0
:10035A00FCFDFEFF22E480F8A2D574FF13FC7D8029
:03036A00E480EF3D
:03000000021EDFFE
:0C1EDF00787FE4F6D8FD75816D021F26A7
:10036D00E709F608DFFA8046E709F208DFFA803E72
:10037D0088828C83E709F0A3DFFA8032E309F6085F
:10038D00DFFA8078E309F208DFFA807088828C83C7
:10039D00E309F0A3DFFA806489828A83E0A3F6087B
:1003AD00DFFA805889828A83E0A3F208DFFA804C55
:1003BD0080D280FA80C680D4806980F2803380102C
:1003CD0080A680EA809A80A880DA80E280CA803395
:1003DD0089828A83ECFAE493A3C8C582C8CCC5830D
:1003ED00CCF0A3C8C582C8CCC583CCDFE9DEE780DD
:1003FD000D89828A83E493A3F608DFF9ECFAA9F05C
:10040D00EDFB2289828A83ECFAE0A3C8C582C8CCB1
:10041D00C583CCF0A3C8C582C8CCC583CCDFEADECA
:10042D00E880DB89828A83E493A3F208DFF980CC2C
:10043D0088F0EF60010E4E60C388F0ED2402B40425
:10044D000050B9F582EB2402B4040050AF232345CC
:06045D0082239003BD7331
:10046300C2D530F707B2D563F0FF05F030E70CB221
:10047300D5F4048463F0FF05F080018430D502F4E1
:02048300042251
:10048500BB010689828A83E0225002E722BBFE0275
:09049500E32289828A83E49322A8
:10049E00BB010CE58229F582E5833AF583E0225013
:1004AE0006E92582F8E622BBFE06E92582F8E2225D
:0D04BE00E58229F582E5833AF583E4932277
:1004CB00BB010689828A83F0225002F722BBFE0110
:0204DB00F3220A
:1004DD00F8BB010DE58229F582E5833AF583E8F055
:1004ED00225006E92582C8F622BBFE05E92582C801
:0204FD00F222E9
:1004FF00EF8DF0A4A8F0CF8CF0A428CE8DF0A42E11
:02050F00FE22CA
:10051100C2D5EC30E709B2D5E4C39DFDE49CFCEE05
:1005210030E715B2D5E4C39FFFE49EFE1207CCC3AA
:10053100E49DFDE49CFC80031207CC30D507C3E4A5
:060541009FFFE49EFE2274
:10054700BB010A89828A83F0E5F0A3F0225006F7FF
:0F05570009A7F01922BBFE06F3E5F009F31922FC
:0E056600C3E49FFFE49EFEE49DFDE49CFC22A6
:10057400EB9FF5F0EA9E42F0E99D42F0EC6480C8FE
:0605840064809845F0229E
:10058A00BB010789828A8302082D5005E9F802080F
:10059A0021BBFE05E9F802083989828A83020845E7
:1005AA00BB010789828A830205F45005E9F802082B
:0A05BA007BBBFE05E9F8020887226A
:1005C400E493F8740193F9740293FA740393FB228D
:1005D400BB010789828A830208625005E9F8020890
:1005E40055BBFE05E9F802086E89828A830205C4B8
:0C05F400ECF0A3EDF0A3EEF0A3EFF0227A
:10060000A8828583F0D083D08212061712061712B3
:100610000617120617E473E493A3C583C5F0C583D8
:10062000C8C582C8F0A3C583C5F0C583C8C582C844
:0106300022A7
:10063100E3F5F009E208B5F06D606B80F3E3F5F0E6
:1006410009E608B5F060605E80F387F009E608B559
:10065100F054605280F487F009E208B5F048604632
:1006610080F488828C8387F009E0A3B5F038603686
:1006710080F488828C8387F009E493A3B5F0276026
:100681002580F388828C83E3F5F009E0A3B5F016A9
:10069100601480F388828C83E3F5F009E493A3B5B9
:1006A100F004600280F202075C808580E7808E8022
:1006B100D2803C8015806C807E809B80B5808B8051
:1006C100A1804F8070803A02076889828A83ECFAA0
:1006D100E493F5F0A3C8C582C8CCC583CCE493A349
:1006E100C8C582C8CCC583CCB5F070606E80E18985
:1006F100828A83E493F5F0A3E208B5F05E605C8042
:10070100F289828A83E0F5F0A3E608B5F04D604BEB
:1007110080F389828A83E0F5F0A3E208B5F03C60BA
:100721003A80F389828A83E493F5F0A3E608B5F071
:100731002A602880F2805389828A83ECFAE493F557
:10074100F0A3C8C582C8CCC583CCE0A3C8C582C804
:10075100CCC583CCB5F004600280E27FFFB5F00226
:100761000F2240027F012289828A83ECFAE0F5F0B0
:10077100A3C8C582C8CCC583CCE0A3C8C582C8CCF8
:10078100C583CCB5F0D560D380E389828A83ECFA46
:10079100E0F5F0A3C8C582C8CCC583CCE493A3C857
:1007A100C582C8CCC583CCB5F0B160AF80E288F01A
:1007B100ED2402B4040050A3F582EB2402B404003A
:0B07C100509923234582239006AA7361
:101C57008B4D8A4E894FAB4DAA4EA94F120485FF73
:101C67001225A6500D7401254FF54FE4354EF54E5C
:101C770080E4D201AB4DAA4EA94F120485FF642B15
:101C87006004EFB42D1BAB4D054FE54FAA4E700214
:101C9700054E14F9120485642D6003D38001C392A5
:101CA70001E4F550F551AB4DAA4EA94F120485FF3B
:101CB7001225C95036AB4DAA4EA94F120485FF33E2
:101CC70095E0FEEF24D0FBEE34FFFAAE50AF517C27
:101CD700007D0A1204FFEF2BF551EE3AF55074011F
:101CE700254FF54FE4354EF54E80BB300106AE501B
:0E1CF700AF518009C3E49551FFE49550FE22E1
:101EEB00021D05E493A3F8E493A34003F68001F2EB
:101EFB0008DFF48029E493A3F85407240CC8C333F8
:101F0B00C4540F4420C8834004F456800146F6DFC6
:101F1B00E4800B0102040810204080901E46E47EF2
:101F2B00019360BCA3FF543F30E509541FFEE493BB
:101F3B00A360010ECF54C025E060A840B8E493A382
:101F4B00FAE493A3F8E493A3C8C582C8CAC583CAAD
:101F5B00F0A3C8C582C8CAC583CADFE9DEE780BE65
:011EDE000003
:1007CC00BC000BBE0029EF8DF084FFADF022E4CC11
:1007DC00F875F008EF2FFFEE33FEEC33FCEE9DECDA
:1007EC00984005FCEE9DFE0FD5F0E9E4CEFD22ED20
:1007FC00F8F5F0EE8420D21CFEADF075F008EF2F6A
:10080C00FFED33FD4007985006D5F0F222C398FD5A
:05081C000FD5F0EA22F7
:0C082100E6FC08E6FD08E6FE08E6FF2203
:0C082D00E0FCA3E0FDA3E0FEA3E0FF223E
:0C083900E2FC08E2FD08E2FE08E2FF22FB
:10084500E493FC740193FD740293FE740393FF22F9
:0D085500E6FB08E6F908E6FA08E6CBF82213
:0C086200E0F8A3E0F9A3E0FAA3E0FB2219
:0D086E00E2FB08E2F908E2FA08E2CBF8220A
:0C087B00ECF608EDF608EEF608EFF622A9
:0C088700ECF208EDF208EEF208EFF222AD
:0F25C900EFC394304007EF943A50028001C322D1
:1025A600EFC394094005EF940E4003BF2003D38088
:0325B60001C3223C
:00000001FF
