:101CFD0053657420004175746F004964480031309C
:101D0D0030004F644800537461204F70656E00576A
:101D1D0061726E696E670049642048756D6964690A
:101D2D00747920202020000D0A004F642048756D25
:101D3D00696469747920202020005374612020206B
:101D4D002020204F70656E2800292F436C6F73651E
:101D5D00005761726E696E672020202020202020A0
:101D6D00000D0A0D0A0D0A005365744D6F64415440
:101D7D0000005365744D6F644D0000005365740091
:101D8D000000000000004F70656E000000000000B4
:0D1D9D000000000000000000000000000039
:101E3E00420052000F420060005A42004D00004224
:101E4E00005000004100620041004C0041004F0074
:101E5E004A0056000000000000000000000456007A
:051E6E00000000C1802E
:0823F100900060E0FEA3E0FF94
:1023F900AB07AA06D3EB9400EA64809480400122DB
:0C2409007CFF7DFFAF03AE021204FF2237
:10185C00300102D200200003021957309209309354
:10186C0006309403021957C200209270900062E077
:10187C00FF75F003120463AFF0EF14601014603BBB
:10188C0024026003021962E490004CF022C3900021
:10189C0061E0945A900060E06480948040030219E7
:1018AC006290004CE064016003021962900061E0F8
:1018BC0004F07027900060E004F022C3900053E025
:1018CC009464900052E0648094804003021962A3F7
:1018DC00E004F07006900052E004F0222093079090
:1018EC000062E004F02220946D900062E0FF75F03D
:1018FC0003120463AFF0EF14600E14603024027016
:10190C005590004C7401F022D3900061E094A690A5
:10191C000060E06480947F403D90004CE064017076
:10192C0035900061E024FFF09000608019D39000A6
:10193C0053E09400900052E0648094804018A3E03F
:10194C0024FFF0900052E034FFF0223092083093E4
:06195C0005309402D200E8
:011962002262
:1012010090004CE07BFF60067A1C79FD80047A1D1A
:1012110079027D06E4FF12170F7BFF7A1D7907E43F
:10122100FD7F0112170FC390004EE094E890004D2E
:10123100E064809483504FE4F53C7B207D027F0184
:1012410012227790004DE0FEA3E0FF7C007D641246
:1012510005118F3C7B287D027F0112221B90004DDE
:10126100E0FEA3E0FF7C007D641205117E007F0A91
:10127100CFCDCFCECCCE1205118F3C7B307D027FFE
:101281000112221B800D7BFF7A1D790B7D047F01EA
:1012910012170F7BFF7A1D790F7D097F0112170F3E
:1012A100C3900051E094E8900050E0648094835032
:1012B1004FE4F53C7B287D027F021222779000509B
:1012C100E0FEA3E0FF7C007D641205118F3C7B30C2
:1012D1007D027F0212221B900050E0FEA3E0FF7C02
:1012E100007D641205117E007F0ACFCDCFCECCCE1A
:1012F1001205118F3C7B387D027F0212221B800D6B
:101301007BFF7A1D790B7D0D7F0112170F7BFF7A11
:101311001D7913E4FD7F0212170FC3900060E06492
:101321008094804005753C018003753C027B187DEB
:10133100047F021222771223F17C007D0A1205112B
:101341008F3C7B207D047F0212221B1223F17C0043
:101351007D0A1205118D3C7B287D047F0212221B20
:101361007BFF7A1D791CE4FD7F0312170F90005259
:10137100E0FEA3E0FF7C007D0A1205118F3C7B207B
:101381007D067F0212221B900052E0FEA3E0FF7C4B
:10139100007D0A1205118D3C7B287D067F021222F9
:1013A1001B900062E0FF75F003120463AFF0EF14CD
:1013B100601C14603924027058753C0A7B38E4FDC6
:1013C1007F02122277E4F53C7B387D048012753C64
:1013D1000A7B387D047F02122277E4F53C7B38FDDD
:1013E1007F02122277E4F53C7B387D06801E753C36
:1013F1000A7B387D067F02122277E4F53C7B38FDBB
:101401007F02122277E4F53C7B387D047F021222B1
:02141100772240
:101AF10090004DE0FEA3E0FF7C007D0A120511AAD3
:101B010006AB07900050E0FEA3E0FF7C007D0A12C7
:101B11000511C3EF9BFFEE9AFEC3900053E09FEEC9
:101B21006480F8900052E0648098503790004CE057
:101B31007031900051E09432900050E064809480C4
:101B4100401BD390004EE0943290004DE0648094AD
:101B510080400A90006074FFF0A374A6F0D295C291
:101B6100968004D296C29590004DE0FEA3E0FF7CE2
:101B7100007D0A120511D3EF9446EE6480948040F3
:101B810014EF24CEFDEE34FFFC1202B38F598E58B0
:0F1B91008D578C5622E4F559F558F557F5562225
:101594007BFF7A1D79247F017E001222D390004DB7
:1015A400E0FEA3E0FFC394E8EE6480948350337CB0
:1015B400007D64120511EF2430FF1225C590004D03
:1015C400E0FEA3E0FF7C007D641205117E007F0A2B
:1015D400CFCDCFCECCCE120511EF2430FF1225C5CE
:1015E400800D7BFF7A1D790B7F017E001222D37B55
:1015F400FF7A1D79347F017E001222D37BFF7A1D8E
:1016040079377F017E001222D3900050E0FEA3E0E0
:10161400FFC394E8EE6480948350337C007D6412AD
:101624000511EF2430FF1225C5900050E0FEA3E021
:10163400FF7C007D641205117E007F0ACFCDCFCEE2
:10164400CCCE120511EF2430FF1225C5800D7BFF8F
:101654007A1D790B7F017E001222D37BFF7A1D79DC
:10166400347F017E001222D37BFF7A1D79477F01EC
:101674007E001222D3C3900060E064809480400412
:101684007F2B80027F2D1225C51223F17C007D0A59
:10169400120511EF2430FF1225C51223F17C007DC1
:1016A4000A120511ED2430FF1225C57BFF7A1D793E
:1016B400567F017E001222D37BFF7A1D79347F018D
:1016C4007E001222D37BFF7A1D795E7F017E001299
:1016D40022D3900052E0FEA3E0FF7C007D0A1205B5
:1016E40011EF2430FF1225C5900052E0FEA3E0FF65
:1016F4007C007D0A120511ED2430FF1225C57BFF05
:0B1704007A1D796E7F017E000222D367
:0B14130090004FE0640160030215939D
:10141E0078327C00FD7BFF7A1D799DFE7F081204D9
:10142E003D783A7C007D007BFF7A1D79A57E007F9A
:10143E000512043DE4F53FF540F541F5427456259D
:10144E0040F5827400353FF583E0FF6043C394415D
:10145E004006EFD3945A400CEFC394614014EFD37F
:10146E00947A500E0542E54270020541142432F87A
:10147E00A6070540E5407002053F2456F58274002C
:10148E00353FF583E070B674322542F8E4F680AD50
:10149E00E4F53FF540F541F54274562540F582746A
:1014AE0000353FF583E0FF603BC394304006EFD339
:1014BE0094394004EFB42D0E0542E5427002054109
:1014CE0014243AF8A6070540E5407002053F24565D
:1014DE00F5827400353FF583E070BE743A2542F80C
:1014EE00E4F680B5E4F53FF540F541F542FB7A00B0
:1014FE00793A121C4F8E3F8F40E4F541F542AE41D2
:10150E00AF427C007D0A1204FF74752FF9741D3EE4
:10151E00FA7BFF78327C007D001207AFEF600E057C
:10152E0042E542700205416404454170D1C3E54273
:10153E009404E541648094805029E5417025E5428C
:10154E0014600E14601324027019E490004CF080A5
:10155E001290004C7401F0800A900052E53FF0A307
:10156E00E540F0E4900060F090004FF0E542640337
:10157E004541701190004CE0B4010A900060E53FC7
:05158E00F0A3E540F0B0
:011593002235
:101DAA001224151224931225441225177E007F004F
:101DBA00E4F53BF53A7539C0753840753F33753EE1
:101DCA0033753D13753C40F543F542754120754026
:101DDA00407BE87A037DE87C03121FD9900060A358
:101DEA00E0245AFF122436D20112185C75360175A6
:101DFA00370075384D7B017A007954E4FF12196374
:101E0A007536017537007538507B017A0079547F31
:101E1A0001121963121201121AF1C3E5199464E549
:101E2A0018648094804008E4F518F5191215941284
:041E3A00141380A855
:03000300021A2EB0
:101A2E00C0E0C0F0C083C082C0D075D000C000C07E
:101A3E0001C002C003C004C005C006C007054FE5C3
:101A4E004F7002054EC39464E54E64809480404B03
:101A5E00754E00754F00AC50AD51EC1202B3E4FB65
:101A6E00FA7920784012011E8F4B8E4A8D498C4890
:101A7E007550007551007E007F00854B26854A25E6
:101A8E008D248C2385592A855829855728855627D4
:101A9E00120D738F558E548D538C52AF55AE54AD6F
:101AAE0053AC521202ECC3E54D9FE54C9E5004D24E
:101ABE00B48002C2B4D3E54D94E8E54C64809483BF
:101ACE004006754C00754D00D007D006D005D004E9
:101ADE00D003D002D001D000D0D0D082D083D0F0AD
:031AEE00D0E03213
:10089300060909E6F80C040202020202041E000023
:1008A300000000071F30204040404040201000005F
:1008B30000E010080810E000000F102020100F00C7
:1008C30000001010F8000000000020203F2020004E
:1008D300007008080808F0000030282422213000A6
:1008E30000300808088870000018202121221C000D
:1008F3000000804030F8000000060524243F242433
:1009030000F88888880808000019202020110E00AC
:1009130000E0108888900000000F112020201F00A5
:1009230000180808886818000000003E0100000055
:100933000070880808887000001C222121221C00F6
:1009430000F008080810E0000001122222110F0035
:10095300000000000000000000010101010101008E
:100963000000000000000000000000000000000084
:1009730000000000E0000000000101010F0101017F
:10098300000000000000000000010101010101005E
:10099300404080F0804040000202010F010202004B
:1009A30000000000C03804000060180700000000C9
:1009B30000000000000000000000363600000000C8
:1009C300000038340282C27C000000000037370088
:1009D3000002010202040200000000000000000007
:1009E300F008F0806018000000310C031E211E0087
:1009F3000040C07840C0780000043F04043F040076
:100A030000008040201008000001020408102000AC
:100A1300000810204080000000201008040201009C
:100A23000000000000000000003030000000000063
:100A33000000C038E0000000203C230202273820D9
:100A430008F8888888700000203F202020110E00BD
:100A5300C0300808080838000718202020100800B4
:100A630008F808080810E000203F202020100F009D
:100A730008F88888E8081000203F20202320180069
:100A830008F88888E8081000203F200003000000D1
:100A9300C03008080838000007182020221E020072
:100AA30008F808000008F808203F210101213F2031
:100AB300000808F8080800000020203F202000005C
:100AC30000000808F8080800C08080807F0000004C
:100AD30008F888C028180800203F20012638200085
:100AE30008F8080000000000203F202020203000EC
:100AF30008F8F800F8F80800203F013E013F200005
:100B030008F830C00008F808203F200007183F000D
:100B1300E01008080810E0000F10202020100F003C
:100B230008F808080808F000203F2101010100002F
:100B3300E01008080810E0000F10282830504F007C
:100B430008F8888888887000203F2000030C302034
:100B530000708808080838000038202121221C0072
:100B6300180808F8080818000000203F20000000BB
:100B730008F808000008F808001F202020201F00A4
:100B83000878880000C83808000007380E01000004
:100B930008F800F800F8080000033E013E030000D7
:100BA300081868808068180820302C03032C302034
:100BB3000838C800C83808000000203F20000000A3
:100BC30010080808C83808002038262120201800FB
:100BD300000080808000000000192424123F2000C0
:100BE30010F0008080000000003F112020110E0053
:100BF3000000008080800000000E112020201100E2
:100C0300000080808090F000001F202020103F20F3
:100C13000000808080800000001F2424242417000B
:100C2300008080E0909020000020203F20200000E2
:100C33000000808080808000006B94949493600017
:100C430010F0008080800000203F210000203F2022
:100C530000809898000000000020203F2020000022
:100C6300000000809898000000C08080807F000012
:100C730010F0000080808000203F240629302000EF
:100C8300001010F8000000000020203F202000008A
:100C93008080808080808000203F20003F20003FB4
:100CA3008080008080800000203F210000203F20C2
:100CB3000000808080800000001F202020201F0073
:100CC300808000808000000080FF912020110E00B2
:100CD3000000008080008000000E11202091FF8022
:100CE300808080008080800020203F212000010040
:100CF3000000808080808000003324242424190095
:100D0300008080E0808000000000001F2020100091
:100D13008080000000808000001F202020103F20E2
:100D2300808080008080800000030C300C03000072
:100D33008080008080008080010E300C073806011F
:100D430000808080008080000020310E2E31200042
:100D530080808000008080800081867818060100F2
:100D630000808080808080000021302C2221300090
:1024CB00C2A2D2A1E4F580D2A0AF80C2A0530780F4
:0924DB00EF7003D38001C350EB44
:0124E40022D5
:10257D00AE071224CBC2A2C2A18E80D2A0C2A022CD
:0625CD004307B802257D62
:0625D3004307C002257D54
:0F24FF00AC031224E553043FAF051225CDAF0403
:09250E0053073F43074002257DFD
:0625D90043073E02257DD0
:05252F00F583E493FFB9
:10253400AE071224CBD2A2C2A18E80D2A0C2A02206
:1024E500EF1460111460092402700EC2A3C2A42265
:0A24F500D2A3C2A422C2A3D2A422E3
:102456001224E5E4FDAF051225CDE4FF12250EE4B6
:0E246600FCE4FF1225340CBC40F70DBD08E766
:012474002245
:102415001224CBE4FF1224E51225D9E4FF1224E5AA
:102425000F1225D9E4FF1224E5122456E4FF0225F4
:01243500D3D3
:102163001224FFE4FBFA75F020E55DA42BF582E56C
:10217300F03AF583E5822493F582E583340812254A
:102183002F0BBB00010AEB64104A70DAED04FF1257
:102193002509E4FAFB75F020E55DA42BF582E5F053
:1021A3003AF583E58224A3F582E583340812252FCB
:0B21B3000BBB00010AEB64104A70DA5D
:0121BE0022FE
:1021BF001224FFE4FBFA75F010E53CA42BF582E541
:1021CF00F03AF583E5822433F582E583340A12254C
:1021DF002F0BBB00010AEB64084A70DAED04FF1203
:1021EF002509E4FAFB75F010E53CA42BF582E5F028
:1021FF003AF583E582243BF582E583340A12252FD5
:0B220F000BBB00010AEB64084A70DA08
:01221A0022A1
:10221B001224FFE4FBFA75F010E53CA42BF582E5E4
:10222B00F03AF583E58224B3F582E5833408122571
:10223B002F0BBB00010AEB64084A70DAED04FF12A6
:10224B002509E4FAFB75F010E53CA42BF582E5F0CB
:10225B003AF583E58224BBF582E583340812252FFA
:0B226B000BBB00010AEB64084A70DAAC
:012276002245
:102277001224FFE4FBFA75F010E53CA42BF582E588
:10228700F03AF583E5822463F582E5833409122564
:102297002F0BBB00010AEB64084A70DAED04FF124A
:1022A7002509E4FAFB75F010E53CA42BF582E5F06F
:1022B7003AF583E582246BF582E583340912252FED
:0B22C7000BBB00010AEB64084A70DA50
:0122D20022E9
:0A170F008F328D338B348A35893612
:10171900E4F537753801AB34AA35A936AF37EF335D
:1017290095E08F82F58312049EFF700302185BE532
:1017390033FD7C00E537FB3395E0FAEB2DFDEC3A00
:10174900FCD3ED9407EC648094804003753802EF74
:10175900C394414030AB34AA35A936AF37EF33953E
:10176900E08F82F58312049EFFD3945A5017E53215
:1017790025E0FDE537253375F008A4543FFBEF2438
:10178900BFF53C8046AB34AA35A936AF37EF339560
:10179900E08F82F58312049EFFC394614034EFD336
:1017A900947A502EE53225E0FDE537253375F008AA
:1017B900A4543FFBC003AB34AF37EF3395E08F82BE
:1017C900F58312049E24B9F53CD003AF381221BF2A
:1017D900807BAB34AA35A936AF37EF3395E08F82DA
:1017E900F58312049EFFC394304034EFD3943950EB
:1017F9002EE53225E0FDE537253375F008A4543F81
:10180900FBC003AB34AF37EF3395E08F82F583121A
:10181900049E24D0F53CD003AF3812221B802EAB96
:1018290034AA35A936AF37EF3395E08F82F58312A5
:10183900049EB42018E53225E0FDE537253375F01F
:1018490008A4543FFBE4F53CAF3812227705370270
:02185900171F57
:01185B00226A
:03000600DFFE22F8
:10247500D3EF9400EE940040147D7B7C00ED1D703D
:0D248500011CED4C70F7EF1F70E61E80E3A8
:012492002227
:101E7300021C0032021E0032021AFFEC021800009C
:041E83000216000043
:10254400758921E51AF58C851B8AD2AFD2A9D28C64
:03255400D2B522DB
:10243600EFD394005002E4FFEFC394B440027FB49C
:10244600EF75F00AA4AEF02411F51DE43EF51C224A
:03000B00022324A9
:04232400C0E0C0D085
:10232800E5174516600E851C1E851D1F7516007560
:102338001700801BC37420951DF51F744E951CF55E
:102348001E7516007517010519E51970020518C3E1
:10235800E4951FF51BE4951EF51AF58C851B8AB2CA
:01236800B5BF
:05236900D0D0D0E032ED
:031E8700015E00F9
:1024930075C83075CDFF75CCDC75CBFF75CADC759F
:0C24A3009850E4F587D2CAD2ACD2AF2228
:0825C5008F993099FDC29922A3
:0A22D3008E328F338B348A35893642
:1022DD008B378A388939E4FDFCC3ED9533E53264DB
:1022ED0080F8EC648098502E8534378535388536E6
:1022FD0039AB37AA38A93912048560130539E53988
:10230D007002053814F9120485FF1225C580E20DFF
:06231D00BD00010C80C3AD
:012323002297
:0300230002236E47
:0D236E00C0E0C083C082C0D075D000C007A1
:10237B0030982EAF99EF640D60117456255EF5827F
:10238B00E43400F583EFF0055E80147456255EF59A
:10239B0082E43400F583E4F0F55E90004F04F0C264
:0123AB009899
:0B23AC00D007D0D0D082D083D0E03228
:0C25B900C08000003D25E354B63BE7A2C3
:10204200E4FE7C80ECD394004024EC5D600FEF143E
:10205200600704700CD2A58008D2A68004C2A5C273
:10206200A6D2A7000000C2A7ECC313FC80D6EF14CF
:102072006007047006D2A58002D2A6D2A7EF146030
:1020820007047009A2A58002A2A6E433FE000000A4
:10209200C2A7EF146007047006D2A58002D2A6AFD1
:0120A2000637
:0120A300221A
:1020A400E4FEEF146007047006D2A58002D2A67C79
:1020B40080ECD39400401CD2A7EF14600804700B8A
:1020C40030A508800330A603EC4206C2A7ECC31374
:1020D400FC80DEEF14600B04700EED24FFB392A5B8
:1020E4008006ED24FFB392A6D2A7000000C2A70089
:1020F4000000EF146007047006D2A58002D2A6AFD8
:0121040006D4
:0121050022B7
:1023B700EF146007047006D2A58002D2A6C2A70058
:1023C700D2A700EF146007047006C2A58002C2A658
:1023D70000C2A7000000D2A700EF14600704700630
:0A23E700D2A58002D2A600C2A722F0
:1024AF00EF146007047006D2A58002D2A6C2A7E47B
:0C24BF00FED2A7C2A70EBE09F80223B788
:02258D00AD0798
:0D258F00E4FB1224AF7D1E122042EB2FFF53
:01259C00221C
:081BA0008F3B8B3C8A3D893E1E
:101BA800E4F543F5441223B7E54214600704701ABC
:101BB8007D0380027D05AF3B122042EF3395E0FEA6
:101BC800EF2544F544EE3543F543900000AF82AE6F
:101BD80083E4FCFD7BFF7AFFF9F8D3120574401209
:101BE800E53B700330A50BE53BB4010330A603A326
:101BF80080DBE53B700B30A5080544E54470020521
:101C080043E53BB4010B30A6080544E544700205E2
:101C1800437D01AF3B1220A4AB3CAA3DA93EEF1285
:101C280004CBAF3B1220A4AB3CAA3DA93E900001D7
:101C3800EF1204DD1DAF3B1220A4AB3FAA40A9411F
:061C4800EF1204CBAF44D3
:011C4E002273
:060FD8008B3B8A3C893DC1
:100FDE0012058A9000381205F4AB3EAA3FA94012C2
:100FEE00058A90003C1205F47F0A7ED77D237C3C57
:100FFE0090003CE0F8A3E0F9A3E0FAA3E0FB1201B5
:10100E001EE4FBFA792078C212002D9000481205DA
:10101E00F4900038E0FCA3E0FDA3E0FEA3E0FF9017
:10102E0025C11205C412011E900038E0F8A3E0F9A4
:10103E00A3E0FAA3E0FB12011EC004C005C006C067
:10104E0007900038E0FCA3E0FDA3E0FEA3E0FF90D4
:10105E0025BD1205C412011ED003D002D001D0004E
:10106E0012002D9025B91205C412002D90004012C9
:10107E0005F4E4FFFE7D407CC0900040E0F8A3E064
:10108E00F9A3E0FAA3E0FB12002D9000441205F440
:10109E007F337E337D877C41900044E0F8A3E0F9F6
:1010AE00A3E0FAA3E0FB120224501E900044E0FCE1
:1010BE00A3E0FDA3E0FEA3E0FFE4FBFA7980783F16
:1010CE001200299000441205F47FCD7ECC7D8F7CDA
:1010DE0042900044E0F8A3E0F9A3E0FAA3E0FB128B
:1010EE0002246020401E900044E0FCA3E0FDA3E03B
:1010FE00FEA3E0FFE4FBFA7980783F12002D90000A
:10110E00441205F47FCD7ECC7DAD7C42900044E050
:10111E00F8A3E0F9A3E0FAA3E0FB1202246020405A
:10112E001E900044E0FCA3E0FDA3E0FEA3E0FFE47C
:10113E00FBFA7980783F12002D9000441205F47F5F
:10114E00CD7ECC7DBF7C42900044E0F8A3E0F9A3B5
:10115E00E0FAA3E0FB1202246020401E900044E05F
:10116E00FCA3E0FDA3E0FEA3E0FFE4FBFA798078A8
:10117E003F12002D9000441205F4E4FFFE7DC87C62
:10118E0042900044E0F8A3E0F9A3E0FAA3E0FB12DA
:10119E000224600C400A90004412060042C800006F
:1011AE007FCD7ECC7DCC7C3D900044E0F8A3E0F971
:1011BE00A3E0FAA3E0FB120224500A9000441206A8
:1011CE00003DCCCCCD900048E0FCA3E0FDA3E0FEBA
:1011DE00A3E0FFAB3EAA3FA9401205AA900044E04F
:1011EE00FCA3E0FDA3E0FEA3E0FFAB3BAA3CA93DC0
:0311FE000205AA3D
:081963008F328B338A34893581
:10196B00E4F539F53F75400075413AF5427B017A54
:10197B00007934121BA0EF2539F539753F007540FE
:10198B000075413A7542017B017A007930AF321212
:10199B001BA0EF2539F5396005AF320224AF90005B
:1019AB0030E0FCA3E0FDE41202B39000301205F42A
:1019BB00900034E0FCA3E0FDE41202B3900034127B
:1019CB0005F4753E01753F007540347B017A007953
:1019DB0030120FD8E4FFFE7D207C41900034E0F8FC
:1019EB00A3E0F9A3E0FAA3E0FB12011E1202ECAB99
:1019FB0033AA34A935EE8FF0120547E4FFFE7D20A4
:101A0B007C41900030E0F8A3E0F9A3E0FAA3E0FBFF
:101A1B0012011E1202ECAB36AA37A938EE8FF01268
:021A2B0005476D
:011A2D002296
:101E8A0060300000000000000000000000000000B8
:101E9A000000000000000000000000000000000038
:101EAA000000000000000000000000000000000028
:041EBA000000000024
:102106008F318E308D2F8C2E8B2B8A2C892D12059C
:102116008AAB31AA30A92FA82E1202245011AF3152
:10212600AE30AD2FAC2EAB2BAA2CA92D1205AAAF23
:1021360031AE30AD2FAC2E12029DAB2BAA2CA92DA1
:102146001205D41202245014AF31AE30AD2FAC2E8E
:0D21560012029DAB2BAA2CA92D1205AA2266
:101FD9008E328F338F828E83E582242EF582E4350B
:101FE90083F583EAF0A3EBF08F828E83E582242CBC
:101FF900F582E43583F583ECF0A3EDF0AF3BAE3A1F
:10200900AD39AC388533828532831205F4AF3FAEE2
:102019003EAD3DAC3CE5332404F582E43532F5832D
:102029001205F4AF43AE42AD41AC40E5332408F5A7
:0920390082E43532F5830205F45E
:100D73008E218F22AF26AE25AD24AC23E52224108D
:100D8300F582E43521F5831205F4AF2AAE29AD28A7
:100D9300AC27E522240CF582E43521F5831205F412
:100DA300AB26AA25A924A823AF2AAE29AD28AC27B0
:100DB300120029E5222418F582E43521F583120572
:100DC300F4E5222418F582E43521F583E0FCA3E061
:100DD300FDA3E0FEA3E0FF852282852183E0F8A343
:100DE300E0F9A3E0FAA3E0FB12011EE522241CF5BF
:100DF30082E43521F5831205F4E5222420F582E40B
:100E03003521F583C083C082E0F8A3E0F9A3E0FABB
:100E1300A3E0FBC000C001C002C003E5222418F513
:100E230082E43521F583E0FCA3E0FDA3E0FEA3E02B
:100E3300FFE5222404F582E43521F583E0F8A3E0FD
:100E4300F9A3E0FAA3E0FB12011ED003D002D00104
:100E5300D00012002DD082D0831205F4E522241491
:100E6300F582E43521F583E0F8A3E0F9A3E0FAA3E2
:100E7300E0FBE5222418F582E43521F583E0FCA3A9
:100E8300E0FDA3E0FEA3E0FF120029E5222408F51C
:100E930082E43521F583E0F8A3E0F9A3E0FAA3E0C7
:100EA300FB12011EE5222424F582E43521F5831289
:100EB30005F4E5222420FFE43521FAA9077B01C0CC
:100EC30003C002C001E522242EF582E43521F58317
:100ED300E0FCA3E0FDE41202B3D001D002D0031280
:100EE3002106E5222420F582E43521F583E0FCA3E5
:100EF300E0FDA3E0FEA3E0FFE522241CF582E43538
:100F030021F583E0F8A3E0F9A3E0FAA3E0FB1200E4
:100F13002DE5222424F582E43521F583E0F8A3E0CE
:100F2300F9A3E0FAA3E0FB12002DE5222428F582C1
:100F3300E43521F5831205F4E5222428FFE4352165
:100F4300FAA9077B01C003C002C001E522242CF5E6
:100F530082E43521F583E0FCA3E0FDE41202B3D083
:100F630001D002D003122106E5222418F582E435CC
:100F730021F583E0FCA3E0FDA3E0FEA3E0FFE5226F
:100F83002414F582E43521F5831205F4E52224289F
:100F9300F582E43521F583E0FCA3E0FDA3E0FEA3A5
:100FA300E0FFE4FBFAF9F81202244012E5222428B8
:100FB300F582E43521F58312060000000000E522E6
:100FC3002428F582E43521F583E0FCA3E0FDA3E0CA
:050FD300FEA3E0FF2277
:101F5D00AB07AA06AF0DAE0CAD0BAC0A8B828A8314
:101F6D001205F4AF11AE10AD0FAC0EEB2404F582DB
:101F7D00E43AF5831205F4AF15AE14AD13AC12EBC4
:101F8D002408F582E43AF5831205F4EB241CF5825E
:101F9D00E43AF58312060000000000EB2420F582E0
:101FAD00E43AF58312060000000000EB2424F582CC
:101FBD00E43AF58312060000000000EB2428F582B8
:0C1FCD00E43AF583120600000000002238
:101EBE00024C000002500000024E00000452424844
:021ECE00000012
:10251700758921758DFF758B9BD2AFD2ABD28ED2C9
:08252700AAD28AD2A8D28822B0
:03001B0002255764
:10255700C0E0758DC0758BC0054DE54D7002054C0B
:03256700D0E0328F
:030013000225AC17
:0D25AC00C0E00551E55170020550D0E0324D
:10002600020358E86480F8E933E83360110460F0AD
:10003600ED33EC337009E8FCE9FDEAFEEBFF220440
:1000460060DED3EB9FEA9EE99DE8C2E78CF0C2F73B
:1000560095F0400CE8CCF8E9CDF9EACEFAEBCFFB07
:1000660012032385D0F05804700320D5B3E804703A
:10007600075002B2D502036292D5EC0460F7E4CCD5
:10008600C0E0C398F8603B94186008400DD0E0FBD0
:1000960002033AE4FBFAC9FC8028E830E406E4C926
:1000A600FBE4CAFCE830E305E4C9CACBFCE8540724
:1000B6006010F8C3E913F9EA13FAEB13FBEC13FC2F
:1000C600D8F130F52FC3E49CFCEF9BFFEE9AFEEDD2
:1000D60099FDD0E0FBEF4E4D4C701222DB0302037C
:1000E6005FEC2CFCEF33FFEE33FEED33FDED30E736
:1000F600EB02033AEF2BFFEE3AFEED39FDD0E0FBC3
:1001060050130BBB0003020362ED13FDEE13FEEF6B
:0801160013FFEC13FC02033A95
:10011E00EC4D6011E8497017ED33EC3304600DE4DB
:10012E00FCFFFEFD22E933E8330470F80203581297
:10013E00032358046009E4CC248150062850090298
:10014E00036228400302035FC0E0EB4A7044B980AB
:10015E0006D0E0FB02034EEF4E701CBD8008EBFF95
:10016E00EAFEE9FD80EBE98DF0A4FEE5F002020760
:10017E00E9CDF9EAFEEBFFEF89F0A4FCE5F0CE89BC
:10018E00F0A42EFFE435F0CD89F0A42DFEE435F079
:10019E008067EF4E7005BD80D780C3EF8BF0A4ACA7
:1001AE00F0EE8BF0A42CFCE435F0F8EF8AF0A42CE2
:1001BE00E5F038FCE433CB8DF0A42CFCE5F03BF8F5
:1001CE00EE8AF0A42CFCE5F038F8E433CF89F0A4E5
:1001DE002CFCE5F038CF3400CE89F0A42FFFE5F0EB
:1001EE003EFEE433C98DF0A42EFEE5F039CD8AF043
:1001FE00A42FFFE5F03EFEE43DFD33D0E0FB5007BB
:10020E000BBB000F020362EC2CFCEF33FFEE33FE50
:06021E00ED33FD02033A7E
:1002240074F8CC6480CCC86480C8F58204604FC381
:10023400EB9FF5F0EA9E42F0E99D42F0E89C45F020
:10024400603C501DE5825FFFE582D313CB5BCBF4AA
:100254002B5582FB50280ABA002409B900200880D3
:100264001DE5825BFBE582D313CF5FCFF4C3132F6D
:100274005582FF50090EBE00050DBD00010CC3EBF5
:100284009FF5F0EA9E42F0E99D42F0E89C45F0605B
:0902940007CC4820E701B3EC227D
:10029D00ED33EC33600A047003BD8004ECB2E7FC6F
:0102AD00222E
:1002AE0075F020800E75F010800575F0087D007ECB
:1002BE00007F003392D530D503120566EC33401023
:1002CE00EF33FFEE33FEED33FDEC33FCD5F0ED22D4
:0E02DE00E5F0247EA2D513CC92E7CDCEFF2210
:1002EC00EDD2E7CD33EC3392D524814006E4FFFE0A
:1002FC00FDFC22FCE4CFCECDCC24E0501174FF8069
:10030C00EDC3CC13CCCD13CDCE13CECF13CF047005
:07031C00F030D5DE0205669A
:10032300E9D2E7C933E833F892D5EDD2E7CD33EC20
:0703330033FC5002B2D52299
:10033A00EC30E7100FBF000C0EBE00080DBD000424
:10034A000BEB6014A2D5EB13FCED92E7FD2274FFD0
:10035A00FCFDFEFF22E480F8A2D574FF13FC7D8029
:03036A00E480EF3D
:03000000021ED10C
:0C1ED100787FE4F6D8FD75815E021F18D2
:10036D00E709F608DFFA8046E709F208DFFA803E72
:10037D0088828C83E709F0A3DFFA8032E309F6085F
:10038D00DFFA8078E309F208DFFA807088828C83C7
:10039D00E309F0A3DFFA806489828A83E0A3F6087B
:1003AD00DFFA805889828A83E0A3F208DFFA804C55
:1003BD0080D280FA80C680D4806980F2803380102C
:1003CD0080A680EA809A80A880DA80E280CA803395
:1003DD0089828A83ECFAE493A3C8C582C8CCC5830D
:1003ED00CCF0A3C8C582C8CCC583CCDFE9DEE780DD
:1003FD000D89828A83E493A3F608DFF9ECFAA9F05C
:10040D00EDFB2289828A83ECFAE0A3C8C582C8CCB1
:10041D00C583CCF0A3C8C582C8CCC583CCDFEADECA
:10042D00E880DB89828A83E493A3F208DFF980CC2C
:10043D0088F0EF60010E4E60C388F0ED2402B40425
:10044D000050B9F582EB2402B4040050AF232345CC
:06045D0082239003BD7331
:10046300C2D530F707B2D563F0FF05F030E70CB221
:10047300D5F4048463F0FF05F080018430D502F4E1
:02048300042251
:10048500BB010689828A83E0225002E722BBFE0275
:09049500E32289828A83E49322A8
:10049E00BB010CE58229F582E5833AF583E0225013
:1004AE0006E92582F8E622BBFE06E92582F8E2225D
:0D04BE00E58229F582E5833AF583E4932277
:1004CB00BB010689828A83F0225002F722BBFE0110
:0204DB00F3220A
:1004DD00F8BB010DE58229F582E5833AF583E8F055
:1004ED00225006E92582C8F622BBFE05E92582C801
:0204FD00F222E9
:1004FF00EF8DF0A4A8F0CF8CF0A428CE8DF0A42E11
:02050F00FE22CA
:10051100C2D5EC30E709B2D5E4C39DFDE49CFCEE05
:1005210030E715B2D5E4C39FFFE49EFE1207CCC3AA
:10053100E49DFDE49CFC80031207CC30D507C3E4A5
:060541009FFFE49EFE2274
:10054700BB010A89828A83F0E5F0A3F0225006F7FF
:0F05570009A7F01922BBFE06F3E5F009F31922FC
:0E056600C3E49FFFE49EFEE49DFDE49CFC22A6
:10057400EB9FF5F0EA9E42F0E99D42F0EC6480C8FE
:0605840064809845F0229E
:10058A00BB010789828A8302082D5005E9F802080F
:10059A0021BBFE05E9F802083989828A83020845E7
:1005AA00BB010789828A830205F45005E9F802082B
:0A05BA007BBBFE05E9F8020887226A
:1005C400E493F8740193F9740293FA740393FB228D
:1005D400BB010789828A830208625005E9F8020890
:1005E40055BBFE05E9F802086E89828A830205C4B8
:0C05F400ECF0A3EDF0A3EEF0A3EFF0227A
:10060000A8828583F0D083D08212061712061712B3
:100610000617120617E473E493A3C583C5F0C583D8
:10062000C8C582C8F0A3C583C5F0C583C8C582C844
:0106300022A7
:10063100E3F5F009E208B5F06D606B80F3E3F5F0E6
:1006410009E608B5F060605E80F387F009E608B559
:10065100F054605280F487F009E208B5F048604632
:1006610080F488828C8387F009E0A3B5F038603686
:1006710080F488828C8387F009E493A3B5F0276026
:100681002580F388828C83E3F5F009E0A3B5F016A9
:10069100601480F388828C83E3F5F009E493A3B5B9
:1006A100F004600280F202075C808580E7808E8022
:1006B100D2803C8015806C807E809B80B5808B8051
:1006C100A1804F8070803A02076889828A83ECFAA0
:1006D100E493F5F0A3C8C582C8CCC583CCE493A349
:1006E100C8C582C8CCC583CCB5F070606E80E18985
:1006F100828A83E493F5F0A3E208B5F05E605C8042
:10070100F289828A83E0F5F0A3E608B5F04D604BEB
:1007110080F389828A83E0F5F0A3E208B5F03C60BA
:100721003A80F389828A83E493F5F0A3E608B5F071
:100731002A602880F2805389828A83ECFAE493F557
:10074100F0A3C8C582C8CCC583CCE0A3C8C582C804
:10075100CCC583CCB5F004600280E27FFFB5F00226
:100761000F2240027F012289828A83ECFAE0F5F0B0
:10077100A3C8C582C8CCC583CCE0A3C8C582C8CCF8
:10078100C583CCB5F0D560D380E389828A83ECFA46
:10079100E0F5F0A3C8C582C8CCC583CCE493A3C857
:1007A100C582C8CCC583CCB5F0B160AF80E288F01A
:1007B100ED2402B4040050A3F582EB2402B404003A
:0B07C100509923234582239006AA7361
:101C4F008B438A448945AB43AA44A945120485FFB7
:101C5F0012256A500D74012545F545E43544F544C8
:101C6F0080E4D201AB43AA44A945120485FF642B3B
:101C7F006004EFB42D1BAB430545E545AA44700244
:101C8F00054414F9120485642D6003D38001C392B7
:101C9F0001E4F546F547AB43AA44A945120485FF75
:101CAF0012259D5036AB43AA44A945120485FF3334
:101CBF0095E0FEEF24D0FBEE34FFFAAE46AF477C43
:101CCF00007D0A1204FFEF2BF547EE3AF54674013B
:101CDF002545F545E43544F54480BB300106AE4655
:0E1CEF00AF478009C3E49547FFE49546FE2207
:101EDD00021DAAE493A3F8E493A34003F68001F254
:101EED0008DFF48029E493A3F85407240CC8C33306
:101EFD00C4540F4420C8834004F456800146F6DFD5
:101F0D00E4800B0102040810204080901E3EE47E08
:101F1D00019360BCA3FF543F30E509541FFEE493C9
:101F2D00A360010ECF54C025E060A840B8E493A390
:101F3D00FAE493A3F8E493A3C8C582C8CAC583CABB
:101F4D00F0A3C8C582C8CAC583CADFE9DEE780BE73
:011ED0000011
:1007CC00BC000BBE0029EF8DF084FFADF022E4CC11
:1007DC00F875F008EF2FFFEE33FEEC33FCEE9DECDA
:1007EC00984005FCEE9DFE0FD5F0E9E4CEFD22ED20
:1007FC00F8F5F0EE8420D21CFEADF075F008EF2F6A
:10080C00FFED33FD4007985006D5F0F222C398FD5A
:05081C000FD5F0EA22F7
:0C082100E6FC08E6FD08E6FE08E6FF2203
:0C082D00E0FCA3E0FDA3E0FEA3E0FF223E
:0C083900E2FC08E2FD08E2FE08E2FF22FB
:10084500E493FC740193FD740293FE740393FF22F9
:0D085500E6FB08E6F908E6FA08E6CBF82213
:0C086200E0F8A3E0F9A3E0FAA3E0FB2219
:0D086E00E2FB08E2F908E2FA08E2CBF8220A
:0C087B00ECF608EDF608EEF608EFF622A9
:0C088700ECF208EDF208EEF208EFF222AD
:0F259D00EFC394304007EF943A50028001C322FD
:10256A00EFC394094005EF940E4003BF2003D380C4
:03257A0001C32278
:00000001FF
